{
  "contractName": "Election",
  "abi": [
    {
      "constant": true,
      "inputs": [],
      "name": "candidateCounts",
      "outputs": [
        {
          "name": "",
          "type": "uint256"
        }
      ],
      "payable": false,
      "stateMutability": "view",
      "type": "function"
    },
    {
      "constant": true,
      "inputs": [],
      "name": "voteCounts",
      "outputs": [
        {
          "name": "",
          "type": "uint256"
        }
      ],
      "payable": false,
      "stateMutability": "view",
      "type": "function"
    },
    {
      "constant": true,
      "inputs": [
        {
          "name": "",
          "type": "uint256"
        }
      ],
      "name": "candidate",
      "outputs": [
        {
          "name": "name",
          "type": "string"
        },
        {
          "name": "candidateVoteCount",
          "type": "uint256"
        }
      ],
      "payable": false,
      "stateMutability": "view",
      "type": "function"
    },
    {
      "constant": true,
      "inputs": [],
      "name": "numVoters",
      "outputs": [
        {
          "name": "",
          "type": "uint256"
        }
      ],
      "payable": false,
      "stateMutability": "view",
      "type": "function"
    },
    {
      "constant": true,
      "inputs": [],
      "name": "EC",
      "outputs": [
        {
          "name": "",
          "type": "address"
        }
      ],
      "payable": false,
      "stateMutability": "view",
      "type": "function"
    },
    {
      "constant": true,
      "inputs": [
        {
          "name": "",
          "type": "uint256"
        }
      ],
      "name": "voter",
      "outputs": [
        {
          "name": "vid",
          "type": "uint256"
        },
        {
          "name": "name",
          "type": "string"
        },
        {
          "name": "voted",
          "type": "bool"
        }
      ],
      "payable": false,
      "stateMutability": "view",
      "type": "function"
    },
    {
      "inputs": [],
      "payable": false,
      "stateMutability": "nonpayable",
      "type": "constructor"
    },
    {
      "anonymous": false,
      "inputs": [
        {
          "indexed": true,
          "name": "candidateId",
          "type": "uint256"
        }
      ],
      "name": "Voted",
      "type": "event"
    },
    {
      "constant": false,
      "inputs": [
        {
          "name": "vid",
          "type": "uint256"
        },
        {
          "name": "_name",
          "type": "string"
        }
      ],
      "name": "addVoter",
      "outputs": [],
      "payable": false,
      "stateMutability": "nonpayable",
      "type": "function"
    },
    {
      "constant": false,
      "inputs": [
        {
          "name": "_name",
          "type": "string"
        },
        {
          "name": "candidateId",
          "type": "uint256"
        }
      ],
      "name": "addCandidate",
      "outputs": [],
      "payable": false,
      "stateMutability": "nonpayable",
      "type": "function"
    },
    {
      "constant": false,
      "inputs": [
        {
          "name": "vid",
          "type": "uint256"
        },
        {
          "name": "_name",
          "type": "string"
        },
        {
          "name": "candidateId",
          "type": "uint256"
        }
      ],
      "name": "Vote",
      "outputs": [],
      "payable": false,
      "stateMutability": "nonpayable",
      "type": "function"
    }
  ],
  "bytecode": "0x608060405234801561001057600080fd5b5033600560006101000a81548173ffffffffffffffffffffffffffffffffffffffff021916908373ffffffffffffffffffffffffffffffffffffffff160217905550610bda806100616000396000f3fe608060405234801561001057600080fd5b50600436106100935760003560e01c80635129ff1a116100665780635129ff1a146101a05780636112ab8614610265578063a08b336714610334578063ab8ed1ba1461037e578063e23cec7b1461043757610093565b8063052c0625146100985780630f01870b146100b65780631de43c4b146100d45780634cbe32b814610182575b600080fd5b6100a06104fc565b6040518082815260200191505060405180910390f35b6100be610502565b6040518082815260200191505060405180910390f35b610100600480360360208110156100ea57600080fd5b8101908080359060200190929190505050610508565b6040518080602001838152602001828103825284818151815260200191508051906020019080838360005b8381101561014657808201518184015260208101905061012b565b50505050905090810190601f1680156101735780820380516001836020036101000a031916815260200191505b50935050505060405180910390f35b61018a6105c4565b6040518082815260200191505060405180910390f35b610263600480360360408110156101b657600080fd5b8101908080359060200190929190803590602001906401000000008111156101dd57600080fd5b8201836020820111156101ef57600080fd5b8035906020019184600183028401116401000000008311171561021157600080fd5b91908080601f016020809104026020016040519081016040528093929190818152602001838380828437600081840152601f19601f8201169050808301925050505050505091929192905050506105ca565b005b6103326004803603606081101561027b57600080fd5b8101908080359060200190929190803590602001906401000000008111156102a257600080fd5b8201836020820111156102b457600080fd5b803590602001918460018302840111640100000000831117156102d657600080fd5b91908080601f016020809104026020016040519081016040528093929190818152602001838380828437600081840152601f19601f820116905080830192505050505050509192919290803590602001909291905050506106b9565b005b61033c610922565b604051808273ffffffffffffffffffffffffffffffffffffffff1673ffffffffffffffffffffffffffffffffffffffff16815260200191505060405180910390f35b6103aa6004803603602081101561039457600080fd5b8101908080359060200190929190505050610948565b604051808481526020018060200183151515158152602001828103825284818151815260200191508051906020019080838360005b838110156103fa5780820151818401526020810190506103df565b50505050905090810190601f1680156104275780820380516001836020036101000a031916815260200191505b5094505050505060405180910390f35b6104fa6004803603604081101561044d57600080fd5b810190808035906020019064010000000081111561046a57600080fd5b82018360208201111561047c57600080fd5b8035906020019184600183028401116401000000008311171561049e57600080fd5b91908080601f016020809104026020016040519081016040528093929190818152602001838380828437600081840152601f19601f82011690508083019250505050505050919291929080359060200190929190505050610a17565b005b60015481565b60005481565b6004602052806000526040600020600091509050806000018054600181600116156101000203166002900480601f0160208091040260200160405190810160405280929190818152602001828054600181600116156101000203166002900480156105b45780601f10610589576101008083540402835291602001916105b4565b820191906000526020600020905b81548152906001019060200180831161059757829003601f168201915b5050505050908060010154905082565b60025481565b600560009054906101000a900473ffffffffffffffffffffffffffffffffffffffff1673ffffffffffffffffffffffffffffffffffffffff163373ffffffffffffffffffffffffffffffffffffffff161461062457600080fd5b6002600081548092919060010191905055506040518060600160405280600254815260200182815260200160001515815250600360006002548152602001908152602001600020600082015181600001556020820151816001019080519060200190610691929190610b09565b5060408201518160020160006101000a81548160ff0219169083151502179055509050505050565b6000811180156106cb57506001548111155b61073d576040517f08c379a000000000000000000000000000000000000000000000000000000000815260040180806020018281038252601b8152602001807f43616e64696461746520496420646f6573206e6f74206578697374000000000081525060200191505060405180910390fd5b60008311801561074f57506002548311155b6107c1576040517f08c379a00000000000000000000000000000000000000000000000000000000081526004018080602001828103825260148152602001807f566f74657220646f6573206e6f7420657869737400000000000000000000000081525060200191505060405180910390fd5b6000839050600115156003600083815260200190815260200160002060020160009054906101000a900460ff1615151514610864576040517f08c379a000000000000000000000000000000000000000000000000000000000815260040180806020018281038252601d8152602001807f536f7272792c20796f75206861766520766f74656420616c726561647900000081525060200191505060405180910390fd5b6000849050604051806060016040528086815260200185815260200160011515815250600360008381526020019081526020016000206000820151816000015560208201518160010190805190602001906108c0929190610b09565b5060408201518160020160006101000a81548160ff021916908315150217905550905050600080815480929190600101919050555060046000848152602001908152602001600020600101600081548092919060010191905055505050505050565b600560009054906101000a900473ffffffffffffffffffffffffffffffffffffffff1681565b6003602052806000526040600020600091509050806000015490806001018054600181600116156101000203166002900480601f0160208091040260200160405190810160405280929190818152602001828054600181600116156101000203166002900480156109fa5780601f106109cf576101008083540402835291602001916109fa565b820191906000526020600020905b8154815290600101906020018083116109dd57829003601f168201915b5050505050908060020160009054906101000a900460ff16905083565b600560009054906101000a900473ffffffffffffffffffffffffffffffffffffffff1673ffffffffffffffffffffffffffffffffffffffff163373ffffffffffffffffffffffffffffffffffffffff1614610a7157600080fd5b600160008154809291906001019190505550604051806040016040528083815260200160008152506004600060015481526020019081526020016000206000820151816000019080519060200190610aca929190610b09565b5060208201518160010155905050807f7f511e347bf51eed3be100b3194247d5207f05f3b33de7d31e3e8ee73199a04960405160405180910390a25050565b828054600181600116156101000203166002900490600052602060002090601f016020900481019282601f10610b4a57805160ff1916838001178555610b78565b82800160010185558215610b78579182015b82811115610b77578251825591602001919060010190610b5c565b5b509050610b859190610b89565b5090565b610bab91905b80821115610ba7576000816000905550600101610b8f565b5090565b9056fea165627a7a72305820a6295b0b1779e0491bef63c2623c40d84a6ad3c5bbef0b8479fe80abc52bad420029",
  "source": "pragma solidity ^0.5.1;\n\ncontract Election{\n    uint public voteCounts;\n    uint public candidateCounts;\n    uint public numVoters;\n    \n    mapping (uint => Voters) public voter; \n    mapping (uint => Candidates) public candidate;\n    \n   address public EC;\n   \n   constructor () public{\n    EC = msg.sender;   \n   }\n   \n   modifier restricted {\n    require (msg.sender == EC);\n    _;\n   }\n    \n    // Details about voters\n    struct Voters {\n        uint vid;\n        string name;\n        bool voted;\n    \n        \n    }\n    event Voted (\n        uint indexed candidateId\n    );\n    \n    // Details about Candidate\n    struct Candidates {\n        string name;\n        uint candidateVoteCount;\n    }\n    // Adding a new voter\n    function addVoter (uint vid, string memory _name) public restricted{\n        numVoters++;\n        voter[numVoters] = Voters(numVoters, _name, false);\n    }\n    // Adding a new candidate\n    function addCandidate (string memory _name, uint candidateId) public restricted{\n        candidateCounts++;\n        candidate[candidateCounts] = Candidates(_name, 0);\n        emit Voted(candidateId);\n        \n    }\n    // Casting a ballot\n    function Vote (uint vid, string memory _name, uint candidateId) public {\n        \n    // verify a valid candidate\n    require(candidateId > 0 && candidateId <= candidateCounts, \"Candidate Id does not exist\");\n    \n    // verify a valid voter\n    require(vid > 0 && vid <= numVoters, \"Voter does not exist\");\n    \n    \n    // verify that voter hasn't voted already\n    uint votedalready = vid;\n    require(!voter[votedalready].voted == true, \"Sorry, you have voted already\" );\n    \n   // vote and record that voter has voted\n     uint voterid = vid;\n     voter[voterid] = Voters(vid, _name, true);\n     \n   // update vote counts\n     voteCounts++;\n     \n     \n   // update candidates vote counts \n     candidate[candidateId].candidateVoteCount++;\n     \n    }\n}",
  "sourcePath": "/Users/sammy/Documents/election/contracts/Election.sol",
  "compiler": {
    "name": "solc",
    "version": "0.5.8+commit.23d335f2.Emscripten.clang"
  },
  "schemaVersion": "3.0.16",
  "updatedAt": "2019-10-01T16:12:58.073Z",
  "devdoc": {
    "methods": {}
  },
  "userdoc": {
    "methods": {}
  }
}